{
  "contractName": "PayrollSystem",
  "abi": [
    {
      "inputs": [],
      "stateMutability": "nonpayable",
      "type": "constructor"
    },
    {
      "anonymous": false,
      "inputs": [
        {
          "indexed": true,
          "internalType": "address",
          "name": "employeeAddress",
          "type": "address"
        },
        {
          "indexed": false,
          "internalType": "uint256",
          "name": "salary",
          "type": "uint256"
        }
      ],
      "name": "EmployeeAdded",
      "type": "event"
    },
    {
      "anonymous": false,
      "inputs": [
        {
          "indexed": true,
          "internalType": "address",
          "name": "employeeAddress",
          "type": "address"
        }
      ],
      "name": "EmployeeRemoved",
      "type": "event"
    },
    {
      "anonymous": false,
      "inputs": [
        {
          "indexed": true,
          "internalType": "address",
          "name": "from",
          "type": "address"
        },
        {
          "indexed": false,
          "internalType": "uint256",
          "name": "amount",
          "type": "uint256"
        }
      ],
      "name": "FundsDeposited",
      "type": "event"
    },
    {
      "anonymous": false,
      "inputs": [
        {
          "indexed": true,
          "internalType": "address",
          "name": "to",
          "type": "address"
        },
        {
          "indexed": false,
          "internalType": "uint256",
          "name": "amount",
          "type": "uint256"
        }
      ],
      "name": "FundsWithdrawn",
      "type": "event"
    },
    {
      "anonymous": false,
      "inputs": [
        {
          "indexed": true,
          "internalType": "address",
          "name": "employeeAddress",
          "type": "address"
        },
        {
          "indexed": false,
          "internalType": "uint256",
          "name": "amount",
          "type": "uint256"
        }
      ],
      "name": "SalaryPaid",
      "type": "event"
    },
    {
      "inputs": [
        {
          "internalType": "uint256",
          "name": "",
          "type": "uint256"
        }
      ],
      "name": "employeeAddresses",
      "outputs": [
        {
          "internalType": "address",
          "name": "",
          "type": "address"
        }
      ],
      "stateMutability": "view",
      "type": "function",
      "constant": true
    },
    {
      "inputs": [
        {
          "internalType": "address",
          "name": "",
          "type": "address"
        }
      ],
      "name": "employees",
      "outputs": [
        {
          "internalType": "address payable",
          "name": "walletAddress",
          "type": "address"
        },
        {
          "internalType": "uint256",
          "name": "salary",
          "type": "uint256"
        },
        {
          "internalType": "uint256",
          "name": "lastPayment",
          "type": "uint256"
        },
        {
          "internalType": "bool",
          "name": "active",
          "type": "bool"
        }
      ],
      "stateMutability": "view",
      "type": "function",
      "constant": true
    },
    {
      "inputs": [],
      "name": "owner",
      "outputs": [
        {
          "internalType": "address",
          "name": "",
          "type": "address"
        }
      ],
      "stateMutability": "view",
      "type": "function",
      "constant": true
    },
    {
      "inputs": [],
      "name": "paymentInterval",
      "outputs": [
        {
          "internalType": "uint256",
          "name": "",
          "type": "uint256"
        }
      ],
      "stateMutability": "view",
      "type": "function",
      "constant": true
    },
    {
      "inputs": [
        {
          "internalType": "address payable",
          "name": "_employeeAddress",
          "type": "address"
        },
        {
          "internalType": "uint256",
          "name": "_salary",
          "type": "uint256"
        }
      ],
      "name": "addEmployee",
      "outputs": [],
      "stateMutability": "nonpayable",
      "type": "function"
    },
    {
      "inputs": [
        {
          "internalType": "address",
          "name": "_employeeAddress",
          "type": "address"
        }
      ],
      "name": "removeEmployee",
      "outputs": [],
      "stateMutability": "nonpayable",
      "type": "function"
    },
    {
      "inputs": [],
      "name": "depositFunds",
      "outputs": [],
      "stateMutability": "payable",
      "type": "function",
      "payable": true
    },
    {
      "inputs": [],
      "name": "processPayroll",
      "outputs": [],
      "stateMutability": "nonpayable",
      "type": "function"
    },
    {
      "inputs": [],
      "name": "withdrawSalary",
      "outputs": [],
      "stateMutability": "nonpayable",
      "type": "function"
    },
    {
      "inputs": [],
      "name": "getContractBalance",
      "outputs": [
        {
          "internalType": "uint256",
          "name": "",
          "type": "uint256"
        }
      ],
      "stateMutability": "view",
      "type": "function",
      "constant": true
    },
    {
      "inputs": [],
      "name": "getEmployeeCount",
      "outputs": [
        {
          "internalType": "uint256",
          "name": "",
          "type": "uint256"
        }
      ],
      "stateMutability": "view",
      "type": "function",
      "constant": true
    },
    {
      "inputs": [
        {
          "internalType": "address",
          "name": "_employeeAddress",
          "type": "address"
        }
      ],
      "name": "getEmployeeDetails",
      "outputs": [
        {
          "internalType": "uint256",
          "name": "salary",
          "type": "uint256"
        },
        {
          "internalType": "uint256",
          "name": "lastPayment",
          "type": "uint256"
        },
        {
          "internalType": "bool",
          "name": "active",
          "type": "bool"
        }
      ],
      "stateMutability": "view",
      "type": "function",
      "constant": true
    }
  ],
  "bytecode": "0x608060405261070860015534801561001657600080fd5b50336000806101000a81548173ffffffffffffffffffffffffffffffffffffffff021916908373ffffffffffffffffffffffffffffffffffffffff16021790555061164f806100666000396000f3fe6080604052600436106100a75760003560e01c8063a4c1fd0811610064578063a4c1fd08146101c0578063c2a63e3b146101d7578063d067894714610202578063d108177a14610242578063e2c41dbc1461026b578063e7fd9a1314610275576100a7565b80631caafcf1146100ac5780631cc1cf46146100eb5780636f9fb98a146101165780637521720b146101415780638da5cb5b1461017e5780639005b2c4146101a9575b600080fd5b3480156100b857600080fd5b506100d360048036038101906100ce9190610ee8565b61029e565b6040516100e293929190610f49565b60405180910390f35b3480156100f757600080fd5b50610100610392565b60405161010d9190610f80565b60405180910390f35b34801561012257600080fd5b5061012b610398565b6040516101389190610f80565b60405180910390f35b34801561014d57600080fd5b5061016860048036038101906101639190610fc7565b6103a0565b6040516101759190611003565b60405180910390f35b34801561018a57600080fd5b506101936103df565b6040516101a09190611003565b60405180910390f35b3480156101b557600080fd5b506101be610403565b005b3480156101cc57600080fd5b506101d5610603565b005b3480156101e357600080fd5b506101ec6107c0565b6040516101f99190610f80565b60405180910390f35b34801561020e57600080fd5b5061022960048036038101906102249190610ee8565b6107cd565b604051610239949392919061103f565b60405180910390f35b34801561024e57600080fd5b5061026960048036038101906102649190610ee8565b61082a565b005b6102736109e8565b005b34801561028157600080fd5b5061029c600480360381019061029791906110b0565b610b09565b005b600080600080600260008673ffffffffffffffffffffffffffffffffffffffff1673ffffffffffffffffffffffffffffffffffffffff1681526020019081526020016000206040518060800160405290816000820160009054906101000a900473ffffffffffffffffffffffffffffffffffffffff1673ffffffffffffffffffffffffffffffffffffffff1673ffffffffffffffffffffffffffffffffffffffff16815260200160018201548152602001600282015481526020016003820160009054906101000a900460ff1615151515815250509050806020015181604001518260600151935093509350509193909250565b60015481565b600047905090565b600381815481106103b057600080fd5b906000526020600020016000915054906101000a900473ffffffffffffffffffffffffffffffffffffffff1681565b60008054906101000a900473ffffffffffffffffffffffffffffffffffffffff1681565b6000600260003373ffffffffffffffffffffffffffffffffffffffff1673ffffffffffffffffffffffffffffffffffffffff16815260200190815260200160002090508060030160009054906101000a900460ff16610497576040517f08c379a000000000000000000000000000000000000000000000000000000000815260040161048e90611173565b60405180910390fd5b600042905060015482600201546104ae91906111c2565b8110156104f0576040517f08c379a00000000000000000000000000000000000000000000000000000000081526004016104e790611242565b60405180910390fd5b6000826001015490508047101561053c576040517f08c379a0000000000000000000000000000000000000000000000000000000008152600401610533906112d4565b60405180910390fd5b8183600201819055508260000160009054906101000a900473ffffffffffffffffffffffffffffffffffffffff1673ffffffffffffffffffffffffffffffffffffffff166108fc829081150290604051600060405180830381858888f193505050501580156105af573d6000803e3d6000fd5b503373ffffffffffffffffffffffffffffffffffffffff167fc0ebfa40c6c89654e46d7c5b0b0c1f8b5d1c65d6612894126714a7b1d6db9a38826040516105f69190610f80565b60405180910390a2505050565b600042905060005b6003805490508110156107bc5760006003828154811061062e5761062d6112f4565b5b9060005260206000200160009054906101000a900473ffffffffffffffffffffffffffffffffffffffff1690506000600260008373ffffffffffffffffffffffffffffffffffffffff1673ffffffffffffffffffffffffffffffffffffffff16815260200190815260200160002090508060030160009054906101000a900460ff1680156106cd575060015481600201546106c991906111c2565b8410155b156107a7576000816001015490508047106107a5578482600201819055508160000160009054906101000a900473ffffffffffffffffffffffffffffffffffffffff1673ffffffffffffffffffffffffffffffffffffffff166108fc829081150290604051600060405180830381858888f19350505050158015610755573d6000803e3d6000fd5b508273ffffffffffffffffffffffffffffffffffffffff167fc0ebfa40c6c89654e46d7c5b0b0c1f8b5d1c65d6612894126714a7b1d6db9a388260405161079c9190610f80565b60405180910390a25b505b505080806107b490611323565b91505061060b565b5050565b6000600380549050905090565b60026020528060005260406000206000915090508060000160009054906101000a900473ffffffffffffffffffffffffffffffffffffffff16908060010154908060020154908060030160009054906101000a900460ff16905084565b60008054906101000a900473ffffffffffffffffffffffffffffffffffffffff1673ffffffffffffffffffffffffffffffffffffffff163373ffffffffffffffffffffffffffffffffffffffff16146108b8576040517f08c379a00000000000000000000000000000000000000000000000000000000081526004016108af906113dd565b60405180910390fd5b600260008273ffffffffffffffffffffffffffffffffffffffff1673ffffffffffffffffffffffffffffffffffffffff16815260200190815260200160002060030160009054906101000a900460ff16610947576040517f08c379a000000000000000000000000000000000000000000000000000000000815260040161093e90611449565b60405180910390fd5b6000600260008373ffffffffffffffffffffffffffffffffffffffff1673ffffffffffffffffffffffffffffffffffffffff16815260200190815260200160002060030160006101000a81548160ff0219169083151502179055508073ffffffffffffffffffffffffffffffffffffffff167fabae6e64cb4315875c29d42347a312f5e9fce4ab564e9722b43dd78d0751135a60405160405180910390a250565b60008054906101000a900473ffffffffffffffffffffffffffffffffffffffff1673ffffffffffffffffffffffffffffffffffffffff163373ffffffffffffffffffffffffffffffffffffffff1614610a76576040517f08c379a0000000000000000000000000000000000000000000000000000000008152600401610a6d906113dd565b60405180910390fd5b60003411610ab9576040517f08c379a0000000000000000000000000000000000000000000000000000000008152600401610ab0906114b5565b60405180910390fd5b3373ffffffffffffffffffffffffffffffffffffffff167f543ba50a5eec5e6178218e364b1d0f396157b3c8fa278522c2cb7fd99407d47434604051610aff9190610f80565b60405180910390a2565b60008054906101000a900473ffffffffffffffffffffffffffffffffffffffff1673ffffffffffffffffffffffffffffffffffffffff163373ffffffffffffffffffffffffffffffffffffffff1614610b97576040517f08c379a0000000000000000000000000000000000000000000000000000000008152600401610b8e906113dd565b60405180910390fd5b600073ffffffffffffffffffffffffffffffffffffffff168273ffffffffffffffffffffffffffffffffffffffff1603610c06576040517f08c379a0000000000000000000000000000000000000000000000000000000008152600401610bfd90611521565b60405180910390fd5b60008111610c49576040517f08c379a0000000000000000000000000000000000000000000000000000000008152600401610c409061158d565b60405180910390fd5b600260008373ffffffffffffffffffffffffffffffffffffffff1673ffffffffffffffffffffffffffffffffffffffff16815260200190815260200160002060030160009054906101000a900460ff1615610cd9576040517f08c379a0000000000000000000000000000000000000000000000000000000008152600401610cd0906115f9565b60405180910390fd5b60405180608001604052808373ffffffffffffffffffffffffffffffffffffffff16815260200182815260200142815260200160011515815250600260008473ffffffffffffffffffffffffffffffffffffffff1673ffffffffffffffffffffffffffffffffffffffff16815260200190815260200160002060008201518160000160006101000a81548173ffffffffffffffffffffffffffffffffffffffff021916908373ffffffffffffffffffffffffffffffffffffffff160217905550602082015181600101556040820151816002015560608201518160030160006101000a81548160ff0219169083151502179055509050506003829080600181540180825580915050600190039060005260206000200160009091909190916101000a81548173ffffffffffffffffffffffffffffffffffffffff021916908373ffffffffffffffffffffffffffffffffffffffff1602179055508173ffffffffffffffffffffffffffffffffffffffff167fbe7f6b46c4532a5c90b0500f056ec43ad5e7ac8c4d410c5351ea9a4a4bed2a0a82604051610e799190610f80565b60405180910390a25050565b600080fd5b600073ffffffffffffffffffffffffffffffffffffffff82169050919050565b6000610eb582610e8a565b9050919050565b610ec581610eaa565b8114610ed057600080fd5b50565b600081359050610ee281610ebc565b92915050565b600060208284031215610efe57610efd610e85565b5b6000610f0c84828501610ed3565b91505092915050565b6000819050919050565b610f2881610f15565b82525050565b60008115159050919050565b610f4381610f2e565b82525050565b6000606082019050610f5e6000830186610f1f565b610f6b6020830185610f1f565b610f786040830184610f3a565b949350505050565b6000602082019050610f956000830184610f1f565b92915050565b610fa481610f15565b8114610faf57600080fd5b50565b600081359050610fc181610f9b565b92915050565b600060208284031215610fdd57610fdc610e85565b5b6000610feb84828501610fb2565b91505092915050565b610ffd81610eaa565b82525050565b60006020820190506110186000830184610ff4565b92915050565b600061102982610e8a565b9050919050565b6110398161101e565b82525050565b60006080820190506110546000830187611030565b6110616020830186610f1f565b61106e6040830185610f1f565b61107b6060830184610f3a565b95945050505050565b61108d8161101e565b811461109857600080fd5b50565b6000813590506110aa81611084565b92915050565b600080604083850312156110c7576110c6610e85565b5b60006110d58582860161109b565b92505060206110e685828601610fb2565b9150509250929050565b600082825260208201905092915050565b7f456d706c6f79656520646f6573206e6f74206578697374206f72206973206e6f60008201527f7420616374697665000000000000000000000000000000000000000000000000602082015250565b600061115d6028836110f0565b915061116882611101565b604082019050919050565b6000602082019050818103600083015261118c81611150565b9050919050565b7f4e487b7100000000000000000000000000000000000000000000000000000000600052601160045260246000fd5b60006111cd82610f15565b91506111d883610f15565b92508282019050808211156111f0576111ef611193565b5b92915050565b7f43616e6e6f742077697468647261772079657400000000000000000000000000600082015250565b600061122c6013836110f0565b9150611237826111f6565b602082019050919050565b6000602082019050818103600083015261125b8161121f565b9050919050565b7f436f6e747261637420646f6573206e6f74206861766520656e6f75676820667560008201527f6e64730000000000000000000000000000000000000000000000000000000000602082015250565b60006112be6023836110f0565b91506112c982611262565b604082019050919050565b600060208201905081810360008301526112ed816112b1565b9050919050565b7f4e487b7100000000000000000000000000000000000000000000000000000000600052603260045260246000fd5b600061132e82610f15565b91507fffffffffffffffffffffffffffffffffffffffffffffffffffffffffffffffff82036113605761135f611193565b5b600182019050919050565b7f4f6e6c7920746865206f776e65722063616e2063616c6c20746869732066756e60008201527f6374696f6e000000000000000000000000000000000000000000000000000000602082015250565b60006113c76025836110f0565b91506113d28261136b565b604082019050919050565b600060208201905081810360008301526113f6816113ba565b9050919050565b7f456d706c6f79656520646f6573206e6f74206578697374000000000000000000600082015250565b60006114336017836110f0565b915061143e826113fd565b602082019050919050565b6000602082019050818103600083015261146281611426565b9050919050565b7f4d757374206465706f73697420736f6d652066756e6473000000000000000000600082015250565b600061149f6017836110f0565b91506114aa82611469565b602082019050919050565b600060208201905081810360008301526114ce81611492565b9050919050565b7f496e76616c696420616464726573730000000000000000000000000000000000600082015250565b600061150b600f836110f0565b9150611516826114d5565b602082019050919050565b6000602082019050818103600083015261153a816114fe565b9050919050565b7f53616c617279206d7573742062652067726561746572207468616e2030000000600082015250565b6000611577601d836110f0565b915061158282611541565b602082019050919050565b600060208201905081810360008301526115a68161156a565b9050919050565b7f456d706c6f79656520616c726561647920657869737473000000000000000000600082015250565b60006115e36017836110f0565b91506115ee826115ad565b602082019050919050565b60006020820190508181036000830152611612816115d6565b905091905056fea2646970667358221220d073bf8e03a1293d15832b60374999a253e8c55b7144d8fa98e46aa951d469da64736f6c63430008110033",
  "immutableReferences": {},
  "source": "// SPDX-License-Identifier: MIT\npragma solidity ^0.8.0;\n\ncontract PayrollSystem {\n    address public owner;\n    uint256 public paymentInterval = 30 minutes;\n    \n    struct Employee {\n        address payable walletAddress;\n        uint256 salary;\n        uint256 lastPayment;\n        bool active;\n    }\n    \n    mapping(address => Employee) public employees;\n    address[] public employeeAddresses;\n    \n    event EmployeeAdded(address indexed employeeAddress, uint256 salary);\n    event EmployeeRemoved(address indexed employeeAddress);\n    event SalaryPaid(address indexed employeeAddress, uint256 amount);\n    event FundsDeposited(address indexed from, uint256 amount);\n    event FundsWithdrawn(address indexed to, uint256 amount);\n    \n    modifier onlyOwner() {\n        require(msg.sender == owner, \"Only the owner can call this function\");\n        _;\n    }\n    \n    constructor() {\n        owner = msg.sender;\n    }\n    \n    function addEmployee(address payable _employeeAddress, uint256 _salary) public onlyOwner {\n        require(_employeeAddress != address(0), \"Invalid address\");\n        require(_salary > 0, \"Salary must be greater than 0\");\n        require(!employees[_employeeAddress].active, \"Employee already exists\");\n        \n        employees[_employeeAddress] = Employee({\n            walletAddress: _employeeAddress,\n            salary: _salary,\n            lastPayment: block.timestamp,\n            active: true\n        });\n        \n        employeeAddresses.push(_employeeAddress);\n        \n        emit EmployeeAdded(_employeeAddress, _salary);\n    }\n    \n    function removeEmployee(address _employeeAddress) public onlyOwner {\n        require(employees[_employeeAddress].active, \"Employee does not exist\");\n        \n        employees[_employeeAddress].active = false;\n        \n        emit EmployeeRemoved(_employeeAddress);\n    }\n    \n    function depositFunds() public payable onlyOwner {\n        require(msg.value > 0, \"Must deposit some funds\");\n        \n        emit FundsDeposited(msg.sender, msg.value);\n    }\n    \n    function processPayroll() public {\n        uint256 currentTime = block.timestamp;\n        \n        for (uint i = 0; i < employeeAddresses.length; i++) {\n            address employeeAddress = employeeAddresses[i];\n            Employee storage employee = employees[employeeAddress];\n            \n            if (employee.active && currentTime >= employee.lastPayment + paymentInterval) {\n                uint256 paymentAmount = employee.salary;\n                \n                if (address(this).balance >= paymentAmount) {\n                    employee.lastPayment = currentTime;\n                    employee.walletAddress.transfer(paymentAmount);\n                    \n                    emit SalaryPaid(employeeAddress, paymentAmount);\n                }\n            }\n        }\n    }\n    \n    function withdrawSalary() public {\n        Employee storage employee = employees[msg.sender];\n        require(employee.active, \"Employee does not exist or is not active\");\n        \n        uint256 currentTime = block.timestamp;\n        require(currentTime >= employee.lastPayment + paymentInterval, \"Cannot withdraw yet\");\n        \n        uint256 paymentAmount = employee.salary;\n        require(address(this).balance >= paymentAmount, \"Contract does not have enough funds\");\n        \n        employee.lastPayment = currentTime;\n        employee.walletAddress.transfer(paymentAmount);\n        \n        emit SalaryPaid(msg.sender, paymentAmount);\n    }\n    \n    function getContractBalance() public view returns (uint256) {\n        return address(this).balance;\n    }\n    \n    function getEmployeeCount() public view returns (uint256) {\n        return employeeAddresses.length;\n    }\n    \n    function getEmployeeDetails(address _employeeAddress) public view returns (uint256 salary, uint256 lastPayment, bool active) {\n        Employee memory employee = employees[_employeeAddress];\n        return (employee.salary, employee.lastPayment, employee.active);\n    }\n}",
  "sourcePath": "/Users/bijaythapa/Desktop/PayChain/truffle/contracts/PayrollSystem.sol",
  "compiler": {
    "name": "solc",
    "version": "0.8.17+commit.8df45f5f.Emscripten.clang"
  },
  "schemaVersion": "3.4.16",
  "updatedAt": "2025-04-05T18:01:47.685Z",
  "networkType": "ethereum",
  "devdoc": {
    "kind": "dev",
    "methods": {},
    "version": 1
  },
  "userdoc": {
    "kind": "user",
    "methods": {},
    "version": 1
  }
}